{
  "_format": "hh-sol-artifact-1",
  "contractName": "IncidentLog",
  "sourceName": "contracts/IncidentLog.sol",
  "abi": [
    {
      "inputs": [
        {
          "internalType": "address",
          "name": "registryAddress",
          "type": "address"
        }
      ],
      "stateMutability": "nonpayable",
      "type": "constructor"
    },
    {
      "inputs": [],
      "name": "AccessControlBadConfirmation",
      "type": "error"
    },
    {
      "inputs": [
        {
          "internalType": "address",
          "name": "account",
          "type": "address"
        },
        {
          "internalType": "bytes32",
          "name": "neededRole",
          "type": "bytes32"
        }
      ],
      "name": "AccessControlUnauthorizedAccount",
      "type": "error"
    },
    {
      "anonymous": false,
      "inputs": [
        {
          "indexed": true,
          "internalType": "uint256",
          "name": "id",
          "type": "uint256"
        },
        {
          "indexed": true,
          "internalType": "uint256",
          "name": "touristId",
          "type": "uint256"
        },
        {
          "indexed": true,
          "internalType": "address",
          "name": "reporter",
          "type": "address"
        },
        {
          "indexed": false,
          "internalType": "uint256",
          "name": "timestamp",
          "type": "uint256"
        }
      ],
      "name": "IncidentLogged",
      "type": "event"
    },
    {
      "anonymous": false,
      "inputs": [
        {
          "indexed": true,
          "internalType": "bytes32",
          "name": "role",
          "type": "bytes32"
        },
        {
          "indexed": true,
          "internalType": "bytes32",
          "name": "previousAdminRole",
          "type": "bytes32"
        },
        {
          "indexed": true,
          "internalType": "bytes32",
          "name": "newAdminRole",
          "type": "bytes32"
        }
      ],
      "name": "RoleAdminChanged",
      "type": "event"
    },
    {
      "anonymous": false,
      "inputs": [
        {
          "indexed": true,
          "internalType": "bytes32",
          "name": "role",
          "type": "bytes32"
        },
        {
          "indexed": true,
          "internalType": "address",
          "name": "account",
          "type": "address"
        },
        {
          "indexed": true,
          "internalType": "address",
          "name": "sender",
          "type": "address"
        }
      ],
      "name": "RoleGranted",
      "type": "event"
    },
    {
      "anonymous": false,
      "inputs": [
        {
          "indexed": true,
          "internalType": "bytes32",
          "name": "role",
          "type": "bytes32"
        },
        {
          "indexed": true,
          "internalType": "address",
          "name": "account",
          "type": "address"
        },
        {
          "indexed": true,
          "internalType": "address",
          "name": "sender",
          "type": "address"
        }
      ],
      "name": "RoleRevoked",
      "type": "event"
    },
    {
      "inputs": [],
      "name": "DEFAULT_ADMIN_ROLE",
      "outputs": [
        {
          "internalType": "bytes32",
          "name": "",
          "type": "bytes32"
        }
      ],
      "stateMutability": "view",
      "type": "function"
    },
    {
      "inputs": [],
      "name": "LOGGER_ROLE",
      "outputs": [
        {
          "internalType": "bytes32",
          "name": "",
          "type": "bytes32"
        }
      ],
      "stateMutability": "view",
      "type": "function"
    },
    {
      "inputs": [
        {
          "internalType": "uint256",
          "name": "id",
          "type": "uint256"
        }
      ],
      "name": "getIncident",
      "outputs": [
        {
          "internalType": "uint256",
          "name": "touristId",
          "type": "uint256"
        },
        {
          "internalType": "uint256",
          "name": "timestamp",
          "type": "uint256"
        },
        {
          "internalType": "string",
          "name": "locationCid",
          "type": "string"
        },
        {
          "internalType": "string",
          "name": "evidenceCid",
          "type": "string"
        },
        {
          "internalType": "string",
          "name": "descriptionCid",
          "type": "string"
        },
        {
          "internalType": "address",
          "name": "reporter",
          "type": "address"
        }
      ],
      "stateMutability": "view",
      "type": "function"
    },
    {
      "inputs": [
        {
          "internalType": "bytes32",
          "name": "role",
          "type": "bytes32"
        }
      ],
      "name": "getRoleAdmin",
      "outputs": [
        {
          "internalType": "bytes32",
          "name": "",
          "type": "bytes32"
        }
      ],
      "stateMutability": "view",
      "type": "function"
    },
    {
      "inputs": [
        {
          "internalType": "bytes32",
          "name": "role",
          "type": "bytes32"
        },
        {
          "internalType": "address",
          "name": "account",
          "type": "address"
        }
      ],
      "name": "grantRole",
      "outputs": [],
      "stateMutability": "nonpayable",
      "type": "function"
    },
    {
      "inputs": [
        {
          "internalType": "bytes32",
          "name": "role",
          "type": "bytes32"
        },
        {
          "internalType": "address",
          "name": "account",
          "type": "address"
        }
      ],
      "name": "hasRole",
      "outputs": [
        {
          "internalType": "bool",
          "name": "",
          "type": "bool"
        }
      ],
      "stateMutability": "view",
      "type": "function"
    },
    {
      "inputs": [],
      "name": "incidentCount",
      "outputs": [
        {
          "internalType": "uint256",
          "name": "",
          "type": "uint256"
        }
      ],
      "stateMutability": "view",
      "type": "function"
    },
    {
      "inputs": [
        {
          "internalType": "uint256",
          "name": "",
          "type": "uint256"
        }
      ],
      "name": "incidents",
      "outputs": [
        {
          "internalType": "uint256",
          "name": "id",
          "type": "uint256"
        },
        {
          "internalType": "uint256",
          "name": "touristId",
          "type": "uint256"
        },
        {
          "internalType": "uint256",
          "name": "timestamp",
          "type": "uint256"
        },
        {
          "internalType": "string",
          "name": "locationCid",
          "type": "string"
        },
        {
          "internalType": "string",
          "name": "evidenceCid",
          "type": "string"
        },
        {
          "internalType": "string",
          "name": "descriptionCid",
          "type": "string"
        },
        {
          "internalType": "address",
          "name": "reporter",
          "type": "address"
        }
      ],
      "stateMutability": "view",
      "type": "function"
    },
    {
      "inputs": [
        {
          "internalType": "uint256",
          "name": "touristId",
          "type": "uint256"
        },
        {
          "internalType": "string",
          "name": "locationCid",
          "type": "string"
        },
        {
          "internalType": "string",
          "name": "evidenceCid",
          "type": "string"
        },
        {
          "internalType": "string",
          "name": "descriptionCid",
          "type": "string"
        }
      ],
      "name": "logIncident",
      "outputs": [
        {
          "internalType": "uint256",
          "name": "",
          "type": "uint256"
        }
      ],
      "stateMutability": "nonpayable",
      "type": "function"
    },
    {
      "inputs": [],
      "name": "registry",
      "outputs": [
        {
          "internalType": "contract ITouristRegistry",
          "name": "",
          "type": "address"
        }
      ],
      "stateMutability": "view",
      "type": "function"
    },
    {
      "inputs": [
        {
          "internalType": "bytes32",
          "name": "role",
          "type": "bytes32"
        },
        {
          "internalType": "address",
          "name": "callerConfirmation",
          "type": "address"
        }
      ],
      "name": "renounceRole",
      "outputs": [],
      "stateMutability": "nonpayable",
      "type": "function"
    },
    {
      "inputs": [
        {
          "internalType": "bytes32",
          "name": "role",
          "type": "bytes32"
        },
        {
          "internalType": "address",
          "name": "account",
          "type": "address"
        }
      ],
      "name": "revokeRole",
      "outputs": [],
      "stateMutability": "nonpayable",
      "type": "function"
    },
    {
      "inputs": [
        {
          "internalType": "bytes4",
          "name": "interfaceId",
          "type": "bytes4"
        }
      ],
      "name": "supportsInterface",
      "outputs": [
        {
          "internalType": "bool",
          "name": "",
          "type": "bool"
        }
      ],
      "stateMutability": "view",
      "type": "function"
    }
  ],
  "bytecode": "0x608060405234801561001057600080fd5b506040516110a83803806110a883398101604081905261002f91610133565b600180546001600160a01b0319166001600160a01b038316179055610055600033610087565b506100807f566c814873eed56a69b28c40ab27cc2cb150d74068bae3e884ccd44f8de60f8a33610087565b5050610163565b6000828152602081815260408083206001600160a01b038516845290915281205460ff16610129576000838152602081815260408083206001600160a01b03861684529091529020805460ff191660011790556100e13390565b6001600160a01b0316826001600160a01b0316847f2f8788117e7eff1d82e926ec794901d17c78024a50270940304540a733656f0d60405160405180910390a450600161012d565b5060005b92915050565b60006020828403121561014557600080fd5b81516001600160a01b038116811461015c57600080fd5b9392505050565b610f36806101726000396000f3fe608060405234801561001057600080fd5b50600436106100cf5760003560e01c80637bf0fbde1161008c578063a09b86ac11610066578063a09b86ac146101f2578063a217fddf146101fb578063a6c6a8f314610203578063d547741f1461022957600080fd5b80637bf0fbde1461019357806391d14854146101ba5780639578615e146101cd57600080fd5b806301ffc9a7146100d4578063248a9ca3146100fc5780632f2ff15d1461012d57806336568abe14610142578063703a25a3146101555780637b10399914610168575b600080fd5b6100e76100e2366004610a6d565b61023c565b60405190151581526020015b60405180910390f35b61011f61010a366004610a9e565b60009081526020819052604090206001015490565b6040519081526020016100f3565b61014061013b366004610acc565b610273565b005b610140610150366004610acc565b61029e565b61011f610163366004610b9f565b6102d6565b60015461017b906001600160a01b031681565b6040516001600160a01b0390911681526020016100f3565b61011f7f566c814873eed56a69b28c40ab27cc2cb150d74068bae3e884ccd44f8de60f8a81565b6100e76101c8366004610acc565b6104f2565b6101e06101db366004610a9e565b61051b565b6040516100f396959493929190610c77565b61011f60035481565b61011f600081565b610216610211366004610a9e565b610723565b6040516100f39796959493929190610cd8565b610140610237366004610acc565b610901565b60006001600160e01b03198216637965db0b60e01b148061026d57506301ffc9a760e01b6001600160e01b03198316145b92915050565b60008281526020819052604090206001015461028e81610926565b6102988383610933565b50505050565b6001600160a01b03811633146102c75760405163334bd91960e11b815260040160405180910390fd5b6102d182826109c5565b505050565b60007f566c814873eed56a69b28c40ab27cc2cb150d74068bae3e884ccd44f8de60f8a61030281610926565b6001546040516381f4b37560e01b8152600481018890526000916001600160a01b0316906381f4b37590602401608060405180830381865afa15801561034c573d6000803e3d6000fd5b505050506040513d601f19601f820116820180604052508101906103709190610d40565b9350505050806103d35760405162461bcd60e51b815260206004820152602360248201527f546f7572697374206e6f7420616374697665202f20646f6573206e6f742065786044820152621a5cdd60ea1b60648201526084015b60405180910390fd5b600380549060006103e383610d91565b90915550506040805160e0810182526003805480835260208084018c815242858701908152606086018d8152608087018d905260a087018c90523360c088015260009485526002938490529690932085518155905160018201559151908201559251919291908201906104569082610e40565b506080820151600482019061046b9082610e40565b5060a082015160058201906104809082610e40565b5060c09190910151600690910180546001600160a01b0319166001600160a01b03909216919091179055600354604051428152339189917f5353ea50c05d4b7a7884dae1b965b16d1f0c6c4e4c15212b14f033740f4dd7429060200160405180910390a4505060035495945050505050565b6000918252602082815260408084206001600160a01b0393909316845291905290205460ff1690565b6000806060806060600080600260008981526020019081526020016000209050806001015481600201548260030183600401846005018560060160009054906101000a90046001600160a01b031683805461057590610db8565b80601f01602080910402602001604051908101604052809291908181526020018280546105a190610db8565b80156105ee5780601f106105c3576101008083540402835291602001916105ee565b820191906000526020600020905b8154815290600101906020018083116105d157829003601f168201915b5050505050935082805461060190610db8565b80601f016020809104026020016040519081016040528092919081815260200182805461062d90610db8565b801561067a5780601f1061064f5761010080835404028352916020019161067a565b820191906000526020600020905b81548152906001019060200180831161065d57829003601f168201915b5050505050925081805461068d90610db8565b80601f01602080910402602001604051908101604052809291908181526020018280546106b990610db8565b80156107065780601f106106db57610100808354040283529160200191610706565b820191906000526020600020905b8154815290600101906020018083116106e957829003601f168201915b505050505091509650965096509650965096505091939550919395565b60026020819052600091825260409091208054600182015492820154600383018054929493919261075390610db8565b80601f016020809104026020016040519081016040528092919081815260200182805461077f90610db8565b80156107cc5780601f106107a1576101008083540402835291602001916107cc565b820191906000526020600020905b8154815290600101906020018083116107af57829003601f168201915b5050505050908060040180546107e190610db8565b80601f016020809104026020016040519081016040528092919081815260200182805461080d90610db8565b801561085a5780601f1061082f5761010080835404028352916020019161085a565b820191906000526020600020905b81548152906001019060200180831161083d57829003601f168201915b50505050509080600501805461086f90610db8565b80601f016020809104026020016040519081016040528092919081815260200182805461089b90610db8565b80156108e85780601f106108bd576101008083540402835291602001916108e8565b820191906000526020600020905b8154815290600101906020018083116108cb57829003601f168201915b505050600690930154919250506001600160a01b031687565b60008281526020819052604090206001015461091c81610926565b61029883836109c5565b6109308133610a30565b50565b600061093f83836104f2565b6109bd576000838152602081815260408083206001600160a01b03861684529091529020805460ff191660011790556109753390565b6001600160a01b0316826001600160a01b0316847f2f8788117e7eff1d82e926ec794901d17c78024a50270940304540a733656f0d60405160405180910390a450600161026d565b50600061026d565b60006109d183836104f2565b156109bd576000838152602081815260408083206001600160a01b0386168085529252808320805460ff1916905551339286917ff6391f5c32d9c69d2a47ea670b442974b53935d1edc7fd64eb21e047a839171b9190a450600161026d565b610a3a82826104f2565b610a695760405163e2517d3f60e01b81526001600160a01b0382166004820152602481018390526044016103ca565b5050565b600060208284031215610a7f57600080fd5b81356001600160e01b031981168114610a9757600080fd5b9392505050565b600060208284031215610ab057600080fd5b5035919050565b6001600160a01b038116811461093057600080fd5b60008060408385031215610adf57600080fd5b823591506020830135610af181610ab7565b809150509250929050565b634e487b7160e01b600052604160045260246000fd5b600082601f830112610b2357600080fd5b813567ffffffffffffffff80821115610b3e57610b3e610afc565b604051601f8301601f19908116603f01168101908282118183101715610b6657610b66610afc565b81604052838152866020858801011115610b7f57600080fd5b836020870160208301376000602085830101528094505050505092915050565b60008060008060808587031215610bb557600080fd5b84359350602085013567ffffffffffffffff80821115610bd457600080fd5b610be088838901610b12565b94506040870135915080821115610bf657600080fd5b610c0288838901610b12565b93506060870135915080821115610c1857600080fd5b50610c2587828801610b12565b91505092959194509250565b6000815180845260005b81811015610c5757602081850181015186830182015201610c3b565b506000602082860101526020601f19601f83011685010191505092915050565b86815285602082015260c060408201526000610c9660c0830187610c31565b8281036060840152610ca88187610c31565b90508281036080840152610cbc8186610c31565b91505060018060a01b03831660a0830152979650505050505050565b87815286602082015285604082015260e060608201526000610cfd60e0830187610c31565b8281036080840152610d0f8187610c31565b905082810360a0840152610d238186610c31565b91505060018060a01b03831660c083015298975050505050505050565b60008060008060808587031215610d5657600080fd5b8451610d6181610ab7565b80945050602085015192506040850151915060608501518015158114610d8657600080fd5b939692955090935050565b600060018201610db157634e487b7160e01b600052601160045260246000fd5b5060010190565b600181811c90821680610dcc57607f821691505b602082108103610dec57634e487b7160e01b600052602260045260246000fd5b50919050565b601f8211156102d157600081815260208120601f850160051c81016020861015610e195750805b601f850160051c820191505b81811015610e3857828155600101610e25565b505050505050565b815167ffffffffffffffff811115610e5a57610e5a610afc565b610e6e81610e688454610db8565b84610df2565b602080601f831160018114610ea35760008415610e8b5750858301515b600019600386901b1c1916600185901b178555610e38565b600085815260208120601f198616915b82811015610ed257888601518255948401946001909101908401610eb3565b5085821015610ef05787850151600019600388901b60f8161c191681555b5050505050600190811b0190555056fea2646970667358221220288ea2c3b3ab637b1b60269e8e4164a15c3dc967d02e5fa57be12f5e1d00357b64736f6c63430008140033",
  "linkReferences": {},
  "deployedLinkReferences": {}
}