{
  "_format": "hh-sol-artifact-1",
  "contractName": "TouristRegistry",
  "sourceName": "contracts/TouristRegistry.sol",
  "abi": [
    {
      "inputs": [],
      "stateMutability": "nonpayable",
      "type": "constructor"
    },
    {
      "inputs": [],
      "name": "AccessControlBadConfirmation",
      "type": "error"
    },
    {
      "inputs": [
        {
          "internalType": "address",
          "name": "account",
          "type": "address"
        },
        {
          "internalType": "bytes32",
          "name": "neededRole",
          "type": "bytes32"
        }
      ],
      "name": "AccessControlUnauthorizedAccount",
      "type": "error"
    },
    {
      "anonymous": false,
      "inputs": [
        {
          "indexed": true,
          "internalType": "bytes32",
          "name": "role",
          "type": "bytes32"
        },
        {
          "indexed": true,
          "internalType": "bytes32",
          "name": "previousAdminRole",
          "type": "bytes32"
        },
        {
          "indexed": true,
          "internalType": "bytes32",
          "name": "newAdminRole",
          "type": "bytes32"
        }
      ],
      "name": "RoleAdminChanged",
      "type": "event"
    },
    {
      "anonymous": false,
      "inputs": [
        {
          "indexed": true,
          "internalType": "bytes32",
          "name": "role",
          "type": "bytes32"
        },
        {
          "indexed": true,
          "internalType": "address",
          "name": "account",
          "type": "address"
        },
        {
          "indexed": true,
          "internalType": "address",
          "name": "sender",
          "type": "address"
        }
      ],
      "name": "RoleGranted",
      "type": "event"
    },
    {
      "anonymous": false,
      "inputs": [
        {
          "indexed": true,
          "internalType": "bytes32",
          "name": "role",
          "type": "bytes32"
        },
        {
          "indexed": true,
          "internalType": "address",
          "name": "account",
          "type": "address"
        },
        {
          "indexed": true,
          "internalType": "address",
          "name": "sender",
          "type": "address"
        }
      ],
      "name": "RoleRevoked",
      "type": "event"
    },
    {
      "anonymous": false,
      "inputs": [
        {
          "indexed": true,
          "internalType": "uint256",
          "name": "id",
          "type": "uint256"
        },
        {
          "indexed": true,
          "internalType": "address",
          "name": "wallet",
          "type": "address"
        },
        {
          "indexed": false,
          "internalType": "bytes32",
          "name": "kycHash",
          "type": "bytes32"
        },
        {
          "indexed": false,
          "internalType": "uint256",
          "name": "validUntil",
          "type": "uint256"
        },
        {
          "indexed": false,
          "internalType": "address",
          "name": "issuer",
          "type": "address"
        }
      ],
      "name": "TouristIssued",
      "type": "event"
    },
    {
      "anonymous": false,
      "inputs": [
        {
          "indexed": true,
          "internalType": "uint256",
          "name": "id",
          "type": "uint256"
        },
        {
          "indexed": false,
          "internalType": "address",
          "name": "issuer",
          "type": "address"
        }
      ],
      "name": "TouristRevoked",
      "type": "event"
    },
    {
      "inputs": [],
      "name": "DEFAULT_ADMIN_ROLE",
      "outputs": [
        {
          "internalType": "bytes32",
          "name": "",
          "type": "bytes32"
        }
      ],
      "stateMutability": "view",
      "type": "function"
    },
    {
      "inputs": [],
      "name": "ISSUER_ROLE",
      "outputs": [
        {
          "internalType": "bytes32",
          "name": "",
          "type": "bytes32"
        }
      ],
      "stateMutability": "view",
      "type": "function"
    },
    {
      "inputs": [
        {
          "internalType": "bytes32",
          "name": "role",
          "type": "bytes32"
        }
      ],
      "name": "getRoleAdmin",
      "outputs": [
        {
          "internalType": "bytes32",
          "name": "",
          "type": "bytes32"
        }
      ],
      "stateMutability": "view",
      "type": "function"
    },
    {
      "inputs": [
        {
          "internalType": "uint256",
          "name": "id",
          "type": "uint256"
        }
      ],
      "name": "getTourist",
      "outputs": [
        {
          "internalType": "address",
          "name": "wallet",
          "type": "address"
        },
        {
          "internalType": "bytes32",
          "name": "kycHash",
          "type": "bytes32"
        },
        {
          "internalType": "uint256",
          "name": "validUntil",
          "type": "uint256"
        },
        {
          "internalType": "bool",
          "name": "active",
          "type": "bool"
        }
      ],
      "stateMutability": "view",
      "type": "function"
    },
    {
      "inputs": [
        {
          "internalType": "address",
          "name": "account",
          "type": "address"
        }
      ],
      "name": "grantIssuerRole",
      "outputs": [],
      "stateMutability": "nonpayable",
      "type": "function"
    },
    {
      "inputs": [
        {
          "internalType": "bytes32",
          "name": "role",
          "type": "bytes32"
        },
        {
          "internalType": "address",
          "name": "account",
          "type": "address"
        }
      ],
      "name": "grantRole",
      "outputs": [],
      "stateMutability": "nonpayable",
      "type": "function"
    },
    {
      "inputs": [
        {
          "internalType": "bytes32",
          "name": "role",
          "type": "bytes32"
        },
        {
          "internalType": "address",
          "name": "account",
          "type": "address"
        }
      ],
      "name": "hasRole",
      "outputs": [
        {
          "internalType": "bool",
          "name": "",
          "type": "bool"
        }
      ],
      "stateMutability": "view",
      "type": "function"
    },
    {
      "inputs": [
        {
          "internalType": "address",
          "name": "wallet",
          "type": "address"
        },
        {
          "internalType": "bytes32",
          "name": "kycHash",
          "type": "bytes32"
        },
        {
          "internalType": "uint256",
          "name": "validUntil",
          "type": "uint256"
        }
      ],
      "name": "issueTourist",
      "outputs": [
        {
          "internalType": "uint256",
          "name": "",
          "type": "uint256"
        }
      ],
      "stateMutability": "nonpayable",
      "type": "function"
    },
    {
      "inputs": [],
      "name": "nextId",
      "outputs": [
        {
          "internalType": "uint256",
          "name": "",
          "type": "uint256"
        }
      ],
      "stateMutability": "view",
      "type": "function"
    },
    {
      "inputs": [
        {
          "internalType": "bytes32",
          "name": "role",
          "type": "bytes32"
        },
        {
          "internalType": "address",
          "name": "callerConfirmation",
          "type": "address"
        }
      ],
      "name": "renounceRole",
      "outputs": [],
      "stateMutability": "nonpayable",
      "type": "function"
    },
    {
      "inputs": [
        {
          "internalType": "bytes32",
          "name": "role",
          "type": "bytes32"
        },
        {
          "internalType": "address",
          "name": "account",
          "type": "address"
        }
      ],
      "name": "revokeRole",
      "outputs": [],
      "stateMutability": "nonpayable",
      "type": "function"
    },
    {
      "inputs": [
        {
          "internalType": "uint256",
          "name": "id",
          "type": "uint256"
        }
      ],
      "name": "revokeTourist",
      "outputs": [],
      "stateMutability": "nonpayable",
      "type": "function"
    },
    {
      "inputs": [
        {
          "internalType": "bytes4",
          "name": "interfaceId",
          "type": "bytes4"
        }
      ],
      "name": "supportsInterface",
      "outputs": [
        {
          "internalType": "bool",
          "name": "",
          "type": "bool"
        }
      ],
      "stateMutability": "view",
      "type": "function"
    },
    {
      "inputs": [
        {
          "internalType": "uint256",
          "name": "id",
          "type": "uint256"
        },
        {
          "internalType": "bytes32",
          "name": "kycHash",
          "type": "bytes32"
        }
      ],
      "name": "verifyTourist",
      "outputs": [
        {
          "internalType": "bool",
          "name": "",
          "type": "bool"
        }
      ],
      "stateMutability": "view",
      "type": "function"
    }
  ],
  "bytecode": "0x608060405234801561001057600080fd5b5061001c600033610052565b506100477f114e74f6ea3bd819998f78687bfcb11b140da08e9b7d222fa9c1f1ba1f2aa12233610052565b5060016003556100fe565b6000828152602081815260408083206001600160a01b038516845290915281205460ff166100f4576000838152602081815260408083206001600160a01b03861684529091529020805460ff191660011790556100ac3390565b6001600160a01b0316826001600160a01b0316847f2f8788117e7eff1d82e926ec794901d17c78024a50270940304540a733656f0d60405160405180910390a45060016100f8565b5060005b92915050565b6108a38061010d6000396000f3fe608060405234801561001057600080fd5b50600436106100ea5760003560e01c806381f4b3751161008c578063a217fddf11610066578063a217fddf14610237578063a5c8d38d1461023f578063c26b3f0d14610252578063d547741f1461026557600080fd5b806381f4b3751461019f57806382aefa241461020f57806391d148541461022457600080fd5b806336568abe116100c857806336568abe1461015d5780635d3e73a01461017057806361b8ce8c146101835780636cdc65d11461018c57600080fd5b806301ffc9a7146100ef578063248a9ca3146101175780632f2ff15d14610148575b600080fd5b6101026100fd366004610724565b610278565b60405190151581526020015b60405180910390f35b61013a610125366004610755565b60009081526020819052604090206001015490565b60405190815260200161010e565b61015b61015636600461078a565b6102af565b005b61015b61016b36600461078a565b6102da565b61013a61017e3660046107b6565b610312565b61013a60035481565b61010261019a3660046107e9565b610470565b6101e36101ad366004610755565b600090815260016020819052604090912080549181015460028201546003909201546001600160a01b0390931693909260ff1690565b604080516001600160a01b0390951685526020850193909352918301521515606082015260800161010e565b61013a60008051602061084e83398151915281565b61010261023236600461078a565b6104ad565b61013a600081565b61015b61024d36600461080b565b6104d6565b61015b610260366004610755565b6104fd565b61015b61027336600461078a565b6105bc565b60006001600160e01b03198216637965db0b60e01b14806102a957506301ffc9a760e01b6001600160e01b03198316145b92915050565b6000828152602081905260409020600101546102ca816105e1565b6102d483836105ee565b50505050565b6001600160a01b03811633146103035760405163334bd91960e11b815260040160405180910390fd5b61030d8282610680565b505050565b600060008051602061084e83398151915261032c816105e1565b6001600160a01b0385166103785760405162461bcd60e51b815260206004820152600e60248201526d125b9d985b1a59081dd85b1b195d60921b60448201526064015b60405180910390fd5b600380546000918261038983610826565b90915550604080516080810182526001600160a01b0389811680835260208084018b81528486018b81526001606080880182815260008b81528387528a812099518a546001600160a01b0319169916989098178955935188830155915160028089019190915592516003909701805460ff1916971515979097179096558385529082528584208054958601815584529281902090930185905583518a81529283018990523393830193909352929350909183917f883dd05bd24160fff4e9e8eacbd8ac3fa9cccef9172aab7939503cd817eeac1b910160405180910390a395945050505050565b6000828152600160205260408120600381015460ff1680156104955750828160010154145b80156104a5575080600201544211155b949350505050565b6000918252602082815260408084206001600160a01b0393909316845291905290205460ff1690565b60006104e1816105e1565b6104f960008051602061084e833981519152836102af565b5050565b60008051602061084e833981519152610515816105e1565b60008281526001602052604090206003015460ff166105695760405162461bcd60e51b815260206004820152601060248201526f416c726561647920696e61637469766560801b604482015260640161036f565b600082815260016020908152604091829020600301805460ff19169055905133815283917f245fb0804fe7f77b540635ac247abb32ed516166817ef35d54168f833fd63f35910160405180910390a25050565b6000828152602081905260409020600101546105d7816105e1565b6102d48383610680565b6105eb81336106eb565b50565b60006105fa83836104ad565b610678576000838152602081815260408083206001600160a01b03861684529091529020805460ff191660011790556106303390565b6001600160a01b0316826001600160a01b0316847f2f8788117e7eff1d82e926ec794901d17c78024a50270940304540a733656f0d60405160405180910390a45060016102a9565b5060006102a9565b600061068c83836104ad565b15610678576000838152602081815260408083206001600160a01b0386168085529252808320805460ff1916905551339286917ff6391f5c32d9c69d2a47ea670b442974b53935d1edc7fd64eb21e047a839171b9190a45060016102a9565b6106f582826104ad565b6104f95760405163e2517d3f60e01b81526001600160a01b03821660048201526024810183905260440161036f565b60006020828403121561073657600080fd5b81356001600160e01b03198116811461074e57600080fd5b9392505050565b60006020828403121561076757600080fd5b5035919050565b80356001600160a01b038116811461078557600080fd5b919050565b6000806040838503121561079d57600080fd5b823591506107ad6020840161076e565b90509250929050565b6000806000606084860312156107cb57600080fd5b6107d48461076e565b95602085013595506040909401359392505050565b600080604083850312156107fc57600080fd5b50508035926020909101359150565b60006020828403121561081d57600080fd5b61074e8261076e565b60006001820161084657634e487b7160e01b600052601160045260246000fd5b506001019056fe114e74f6ea3bd819998f78687bfcb11b140da08e9b7d222fa9c1f1ba1f2aa122a2646970667358221220da1d928941deb2db87965eb4813f2e1775cd4f0c30d6387e6f2d6d6ac7b8b7e464736f6c63430008140033",
  "linkReferences": {},
  "deployedLinkReferences": {}
}