{"contracts/TouristRegistry.sol":{"TouristRegistry":{"abi":[{"inputs":[],"stateMutability":"nonpayable","type":"constructor"},{"inputs":[],"name":"AccessControlBadConfirmation","type":"error"},{"inputs":[{"internalType":"address","name":"account","type":"address"},{"internalType":"bytes32","name":"neededRole","type":"bytes32"}],"name":"AccessControlUnauthorizedAccount","type":"error"},{"anonymous":false,"inputs":[{"indexed":true,"internalType":"bytes32","name":"role","type":"bytes32"},{"indexed":true,"internalType":"bytes32","name":"previousAdminRole","type":"bytes32"},{"indexed":true,"internalType":"bytes32","name":"newAdminRole","type":"bytes32"}],"name":"RoleAdminChanged","type":"event"},{"anonymous":false,"inputs":[{"indexed":true,"internalType":"bytes32","name":"role","type":"bytes32"},{"indexed":true,"internalType":"address","name":"account","type":"address"},{"indexed":true,"internalType":"address","name":"sender","type":"address"}],"name":"RoleGranted","type":"event"},{"anonymous":false,"inputs":[{"indexed":true,"internalType":"bytes32","name":"role","type":"bytes32"},{"indexed":true,"internalType":"address","name":"account","type":"address"},{"indexed":true,"internalType":"address","name":"sender","type":"address"}],"name":"RoleRevoked","type":"event"},{"anonymous":false,"inputs":[{"indexed":true,"internalType":"uint256","name":"id","type":"uint256"},{"indexed":true,"internalType":"address","name":"wallet","type":"address"},{"indexed":false,"internalType":"bytes32","name":"kycHash","type":"bytes32"},{"indexed":false,"internalType":"uint256","name":"validUntil","type":"uint256"},{"indexed":false,"internalType":"address","name":"issuer","type":"address"}],"name":"TouristIssued","type":"event"},{"anonymous":false,"inputs":[{"indexed":true,"internalType":"uint256","name":"id","type":"uint256"},{"indexed":false,"internalType":"address","name":"issuer","type":"address"}],"name":"TouristRevoked","type":"event"},{"inputs":[],"name":"DEFAULT_ADMIN_ROLE","outputs":[{"internalType":"bytes32","name":"","type":"bytes32"}],"stateMutability":"view","type":"function"},{"inputs":[],"name":"ISSUER_ROLE","outputs":[{"internalType":"bytes32","name":"","type":"bytes32"}],"stateMutability":"view","type":"function"},{"inputs":[{"internalType":"bytes32","name":"role","type":"bytes32"}],"name":"getRoleAdmin","outputs":[{"internalType":"bytes32","name":"","type":"bytes32"}],"stateMutability":"view","type":"function"},{"inputs":[{"internalType":"uint256","name":"id","type":"uint256"}],"name":"getTourist","outputs":[{"internalType":"address","name":"wallet","type":"address"},{"internalType":"bytes32","name":"kycHash","type":"bytes32"},{"internalType":"uint256","name":"validUntil","type":"uint256"},{"internalType":"bool","name":"active","type":"bool"}],"stateMutability":"view","type":"function"},{"inputs":[{"internalType":"address","name":"account","type":"address"}],"name":"grantIssuerRole","outputs":[],"stateMutability":"nonpayable","type":"function"},{"inputs":[{"internalType":"bytes32","name":"role","type":"bytes32"},{"internalType":"address","name":"account","type":"address"}],"name":"grantRole","outputs":[],"stateMutability":"nonpayable","type":"function"},{"inputs":[{"internalType":"bytes32","name":"role","type":"bytes32"},{"internalType":"address","name":"account","type":"address"}],"name":"hasRole","outputs":[{"internalType":"bool","name":"","type":"bool"}],"stateMutability":"view","type":"function"},{"inputs":[{"internalType":"address","name":"wallet","type":"address"},{"internalType":"bytes32","name":"kycHash","type":"bytes32"},{"internalType":"uint256","name":"validUntil","type":"uint256"}],"name":"issueTourist","outputs":[{"internalType":"uint256","name":"","type":"uint256"}],"stateMutability":"nonpayable","type":"function"},{"inputs":[],"name":"nextId","outputs":[{"internalType":"uint256","name":"","type":"uint256"}],"stateMutability":"view","type":"function"},{"inputs":[{"internalType":"bytes32","name":"role","type":"bytes32"},{"internalType":"address","name":"callerConfirmation","type":"address"}],"name":"renounceRole","outputs":[],"stateMutability":"nonpayable","type":"function"},{"inputs":[{"internalType":"bytes32","name":"role","type":"bytes32"},{"internalType":"address","name":"account","type":"address"}],"name":"revokeRole","outputs":[],"stateMutability":"nonpayable","type":"function"},{"inputs":[{"internalType":"uint256","name":"id","type":"uint256"}],"name":"revokeTourist","outputs":[],"stateMutability":"nonpayable","type":"function"},{"inputs":[{"internalType":"bytes4","name":"interfaceId","type":"bytes4"}],"name":"supportsInterface","outputs":[{"internalType":"bool","name":"","type":"bool"}],"stateMutability":"view","type":"function"},{"inputs":[{"internalType":"uint256","name":"id","type":"uint256"},{"internalType":"bytes32","name":"kycHash","type":"bytes32"}],"name":"verifyTourist","outputs":[{"internalType":"bool","name":"","type":"bool"}],"stateMutability":"view","type":"function"}],"evm":{"bytecode":{"linkReferences":{},"object":"608060405234801561001057600080fd5b5061001c600033610052565b506100477f114e74f6ea3bd819998f78687bfcb11b140da08e9b7d222fa9c1f1ba1f2aa12233610052565b5060016003556100fe565b6000828152602081815260408083206001600160a01b038516845290915281205460ff166100f4576000838152602081815260408083206001600160a01b03861684529091529020805460ff191660011790556100ac3390565b6001600160a01b0316826001600160a01b0316847f2f8788117e7eff1d82e926ec794901d17c78024a50270940304540a733656f0d60405160405180910390a45060016100f8565b5060005b92915050565b6108a38061010d6000396000f3fe608060405234801561001057600080fd5b50600436106100ea5760003560e01c806381f4b3751161008c578063a217fddf11610066578063a217fddf14610237578063a5c8d38d1461023f578063c26b3f0d14610252578063d547741f1461026557600080fd5b806381f4b3751461019f57806382aefa241461020f57806391d148541461022457600080fd5b806336568abe116100c857806336568abe1461015d5780635d3e73a01461017057806361b8ce8c146101835780636cdc65d11461018c57600080fd5b806301ffc9a7146100ef578063248a9ca3146101175780632f2ff15d14610148575b600080fd5b6101026100fd366004610724565b610278565b60405190151581526020015b60405180910390f35b61013a610125366004610755565b60009081526020819052604090206001015490565b60405190815260200161010e565b61015b61015636600461078a565b6102af565b005b61015b61016b36600461078a565b6102da565b61013a61017e3660046107b6565b610312565b61013a60035481565b61010261019a3660046107e9565b610470565b6101e36101ad366004610755565b600090815260016020819052604090912080549181015460028201546003909201546001600160a01b0390931693909260ff1690565b604080516001600160a01b0390951685526020850193909352918301521515606082015260800161010e565b61013a60008051602061084e83398151915281565b61010261023236600461078a565b6104ad565b61013a600081565b61015b61024d36600461080b565b6104d6565b61015b610260366004610755565b6104fd565b61015b61027336600461078a565b6105bc565b60006001600160e01b03198216637965db0b60e01b14806102a957506301ffc9a760e01b6001600160e01b03198316145b92915050565b6000828152602081905260409020600101546102ca816105e1565b6102d483836105ee565b50505050565b6001600160a01b03811633146103035760405163334bd91960e11b815260040160405180910390fd5b61030d8282610680565b505050565b600060008051602061084e83398151915261032c816105e1565b6001600160a01b0385166103785760405162461bcd60e51b815260206004820152600e60248201526d125b9d985b1a59081dd85b1b195d60921b60448201526064015b60405180910390fd5b600380546000918261038983610826565b90915550604080516080810182526001600160a01b0389811680835260208084018b81528486018b81526001606080880182815260008b81528387528a812099518a546001600160a01b0319169916989098178955935188830155915160028089019190915592516003909701805460ff1916971515979097179096558385529082528584208054958601815584529281902090930185905583518a81529283018990523393830193909352929350909183917f883dd05bd24160fff4e9e8eacbd8ac3fa9cccef9172aab7939503cd817eeac1b910160405180910390a395945050505050565b6000828152600160205260408120600381015460ff1680156104955750828160010154145b80156104a5575080600201544211155b949350505050565b6000918252602082815260408084206001600160a01b0393909316845291905290205460ff1690565b60006104e1816105e1565b6104f960008051602061084e833981519152836102af565b5050565b60008051602061084e833981519152610515816105e1565b60008281526001602052604090206003015460ff166105695760405162461bcd60e51b815260206004820152601060248201526f416c726561647920696e61637469766560801b604482015260640161036f565b600082815260016020908152604091829020600301805460ff19169055905133815283917f245fb0804fe7f77b540635ac247abb32ed516166817ef35d54168f833fd63f35910160405180910390a25050565b6000828152602081905260409020600101546105d7816105e1565b6102d48383610680565b6105eb81336106eb565b50565b60006105fa83836104ad565b610678576000838152602081815260408083206001600160a01b03861684529091529020805460ff191660011790556106303390565b6001600160a01b0316826001600160a01b0316847f2f8788117e7eff1d82e926ec794901d17c78024a50270940304540a733656f0d60405160405180910390a45060016102a9565b5060006102a9565b600061068c83836104ad565b15610678576000838152602081815260408083206001600160a01b0386168085529252808320805460ff1916905551339286917ff6391f5c32d9c69d2a47ea670b442974b53935d1edc7fd64eb21e047a839171b9190a45060016102a9565b6106f582826104ad565b6104f95760405163e2517d3f60e01b81526001600160a01b03821660048201526024810183905260440161036f565b60006020828403121561073657600080fd5b81356001600160e01b03198116811461074e57600080fd5b9392505050565b60006020828403121561076757600080fd5b5035919050565b80356001600160a01b038116811461078557600080fd5b919050565b6000806040838503121561079d57600080fd5b823591506107ad6020840161076e565b90509250929050565b6000806000606084860312156107cb57600080fd5b6107d48461076e565b95602085013595506040909401359392505050565b600080604083850312156107fc57600080fd5b50508035926020909101359150565b60006020828403121561081d57600080fd5b61074e8261076e565b60006001820161084657634e487b7160e01b600052601160045260246000fd5b506001019056fe114e74f6ea3bd819998f78687bfcb11b140da08e9b7d222fa9c1f1ba1f2aa122a2646970667358221220da1d928941deb2db87965eb4813f2e1775cd4f0c30d6387e6f2d6d6ac7b8b7e464736f6c63430008140033","opcodes":"PUSH1 0x80 PUSH1 0x40 MSTORE CALLVALUE DUP1 ISZERO PUSH2 0x10 JUMPI PUSH1 0x0 DUP1 REVERT JUMPDEST POP PUSH2 0x1C PUSH1 0x0 CALLER PUSH2 0x52 JUMP JUMPDEST POP PUSH2 0x47 PUSH32 0x114E74F6EA3BD819998F78687BFCB11B140DA08E9B7D222FA9C1F1BA1F2AA122 CALLER PUSH2 0x52 JUMP JUMPDEST POP PUSH1 0x1 PUSH1 0x3 SSTORE PUSH2 0xFE JUMP JUMPDEST PUSH1 0x0 DUP3 DUP2 MSTORE PUSH1 0x20 DUP2 DUP2 MSTORE PUSH1 0x40 DUP1 DUP4 KECCAK256 PUSH1 0x1 PUSH1 0x1 PUSH1 0xA0 SHL SUB DUP6 AND DUP5 MSTORE SWAP1 SWAP2 MSTORE DUP2 KECCAK256 SLOAD PUSH1 0xFF AND PUSH2 0xF4 JUMPI PUSH1 0x0 DUP4 DUP2 MSTORE PUSH1 0x20 DUP2 DUP2 MSTORE PUSH1 0x40 DUP1 DUP4 KECCAK256 PUSH1 0x1 PUSH1 0x1 PUSH1 0xA0 SHL SUB DUP7 AND DUP5 MSTORE SWAP1 SWAP2 MSTORE SWAP1 KECCAK256 DUP1 SLOAD PUSH1 0xFF NOT AND PUSH1 0x1 OR SWAP1 SSTORE PUSH2 0xAC CALLER SWAP1 JUMP JUMPDEST PUSH1 0x1 PUSH1 0x1 PUSH1 0xA0 SHL SUB AND DUP3 PUSH1 0x1 PUSH1 0x1 PUSH1 0xA0 SHL SUB AND DUP5 PUSH32 0x2F8788117E7EFF1D82E926EC794901D17C78024A50270940304540A733656F0D PUSH1 0x40 MLOAD PUSH1 0x40 MLOAD DUP1 SWAP2 SUB SWAP1 LOG4 POP PUSH1 0x1 PUSH2 0xF8 JUMP JUMPDEST POP PUSH1 0x0 JUMPDEST SWAP3 SWAP2 POP POP JUMP JUMPDEST PUSH2 0x8A3 DUP1 PUSH2 0x10D PUSH1 0x0 CODECOPY PUSH1 0x0 RETURN INVALID PUSH1 0x80 PUSH1 0x40 MSTORE CALLVALUE DUP1 ISZERO PUSH2 0x10 JUMPI PUSH1 0x0 DUP1 REVERT JUMPDEST POP PUSH1 0x4 CALLDATASIZE LT PUSH2 0xEA JUMPI PUSH1 0x0 CALLDATALOAD PUSH1 0xE0 SHR DUP1 PUSH4 0x81F4B375 GT PUSH2 0x8C JUMPI DUP1 PUSH4 0xA217FDDF GT PUSH2 0x66 JUMPI DUP1 PUSH4 0xA217FDDF EQ PUSH2 0x237 JUMPI DUP1 PUSH4 0xA5C8D38D EQ PUSH2 0x23F JUMPI DUP1 PUSH4 0xC26B3F0D EQ PUSH2 0x252 JUMPI DUP1 PUSH4 0xD547741F EQ PUSH2 0x265 JUMPI PUSH1 0x0 DUP1 REVERT JUMPDEST DUP1 PUSH4 0x81F4B375 EQ PUSH2 0x19F JUMPI DUP1 PUSH4 0x82AEFA24 EQ PUSH2 0x20F JUMPI DUP1 PUSH4 0x91D14854 EQ PUSH2 0x224 JUMPI PUSH1 0x0 DUP1 REVERT JUMPDEST DUP1 PUSH4 0x36568ABE GT PUSH2 0xC8 JUMPI DUP1 PUSH4 0x36568ABE EQ PUSH2 0x15D JUMPI DUP1 PUSH4 0x5D3E73A0 EQ PUSH2 0x170 JUMPI DUP1 PUSH4 0x61B8CE8C EQ PUSH2 0x183 JUMPI DUP1 PUSH4 0x6CDC65D1 EQ PUSH2 0x18C JUMPI PUSH1 0x0 DUP1 REVERT JUMPDEST DUP1 PUSH4 0x1FFC9A7 EQ PUSH2 0xEF JUMPI DUP1 PUSH4 0x248A9CA3 EQ PUSH2 0x117 JUMPI DUP1 PUSH4 0x2F2FF15D EQ PUSH2 0x148 JUMPI JUMPDEST PUSH1 0x0 DUP1 REVERT JUMPDEST PUSH2 0x102 PUSH2 0xFD CALLDATASIZE PUSH1 0x4 PUSH2 0x724 JUMP JUMPDEST PUSH2 0x278 JUMP JUMPDEST PUSH1 0x40 MLOAD SWAP1 ISZERO ISZERO DUP2 MSTORE PUSH1 0x20 ADD JUMPDEST PUSH1 0x40 MLOAD DUP1 SWAP2 SUB SWAP1 RETURN JUMPDEST PUSH2 0x13A PUSH2 0x125 CALLDATASIZE PUSH1 0x4 PUSH2 0x755 JUMP JUMPDEST PUSH1 0x0 SWAP1 DUP2 MSTORE PUSH1 0x20 DUP2 SWAP1 MSTORE PUSH1 0x40 SWAP1 KECCAK256 PUSH1 0x1 ADD SLOAD SWAP1 JUMP JUMPDEST PUSH1 0x40 MLOAD SWAP1 DUP2 MSTORE PUSH1 0x20 ADD PUSH2 0x10E JUMP JUMPDEST PUSH2 0x15B PUSH2 0x156 CALLDATASIZE PUSH1 0x4 PUSH2 0x78A JUMP JUMPDEST PUSH2 0x2AF JUMP JUMPDEST STOP JUMPDEST PUSH2 0x15B PUSH2 0x16B CALLDATASIZE PUSH1 0x4 PUSH2 0x78A JUMP JUMPDEST PUSH2 0x2DA JUMP JUMPDEST PUSH2 0x13A PUSH2 0x17E CALLDATASIZE PUSH1 0x4 PUSH2 0x7B6 JUMP JUMPDEST PUSH2 0x312 JUMP JUMPDEST PUSH2 0x13A PUSH1 0x3 SLOAD DUP2 JUMP JUMPDEST PUSH2 0x102 PUSH2 0x19A CALLDATASIZE PUSH1 0x4 PUSH2 0x7E9 JUMP JUMPDEST PUSH2 0x470 JUMP JUMPDEST PUSH2 0x1E3 PUSH2 0x1AD CALLDATASIZE PUSH1 0x4 PUSH2 0x755 JUMP JUMPDEST PUSH1 0x0 SWAP1 DUP2 MSTORE PUSH1 0x1 PUSH1 0x20 DUP2 SWAP1 MSTORE PUSH1 0x40 SWAP1 SWAP2 KECCAK256 DUP1 SLOAD SWAP2 DUP2 ADD SLOAD PUSH1 0x2 DUP3 ADD SLOAD PUSH1 0x3 SWAP1 SWAP3 ADD SLOAD PUSH1 0x1 PUSH1 0x1 PUSH1 0xA0 SHL SUB SWAP1 SWAP4 AND SWAP4 SWAP1 SWAP3 PUSH1 0xFF AND SWAP1 JUMP JUMPDEST PUSH1 0x40 DUP1 MLOAD PUSH1 0x1 PUSH1 0x1 PUSH1 0xA0 SHL SUB SWAP1 SWAP6 AND DUP6 MSTORE PUSH1 0x20 DUP6 ADD SWAP4 SWAP1 SWAP4 MSTORE SWAP2 DUP4 ADD MSTORE ISZERO ISZERO PUSH1 0x60 DUP3 ADD MSTORE PUSH1 0x80 ADD PUSH2 0x10E JUMP JUMPDEST PUSH2 0x13A PUSH1 0x0 DUP1 MLOAD PUSH1 0x20 PUSH2 0x84E DUP4 CODECOPY DUP2 MLOAD SWAP2 MSTORE DUP2 JUMP JUMPDEST PUSH2 0x102 PUSH2 0x232 CALLDATASIZE PUSH1 0x4 PUSH2 0x78A JUMP JUMPDEST PUSH2 0x4AD JUMP JUMPDEST PUSH2 0x13A PUSH1 0x0 DUP2 JUMP JUMPDEST PUSH2 0x15B PUSH2 0x24D CALLDATASIZE PUSH1 0x4 PUSH2 0x80B JUMP JUMPDEST PUSH2 0x4D6 JUMP JUMPDEST PUSH2 0x15B PUSH2 0x260 CALLDATASIZE PUSH1 0x4 PUSH2 0x755 JUMP JUMPDEST PUSH2 0x4FD JUMP JUMPDEST PUSH2 0x15B PUSH2 0x273 CALLDATASIZE PUSH1 0x4 PUSH2 0x78A JUMP JUMPDEST PUSH2 0x5BC JUMP JUMPDEST PUSH1 0x0 PUSH1 0x1 PUSH1 0x1 PUSH1 0xE0 SHL SUB NOT DUP3 AND PUSH4 0x7965DB0B PUSH1 0xE0 SHL EQ DUP1 PUSH2 0x2A9 JUMPI POP PUSH4 0x1FFC9A7 PUSH1 0xE0 SHL PUSH1 0x1 PUSH1 0x1 PUSH1 0xE0 SHL SUB NOT DUP4 AND EQ JUMPDEST SWAP3 SWAP2 POP POP JUMP JUMPDEST PUSH1 0x0 DUP3 DUP2 MSTORE PUSH1 0x20 DUP2 SWAP1 MSTORE PUSH1 0x40 SWAP1 KECCAK256 PUSH1 0x1 ADD SLOAD PUSH2 0x2CA DUP2 PUSH2 0x5E1 JUMP JUMPDEST PUSH2 0x2D4 DUP4 DUP4 PUSH2 0x5EE JUMP JUMPDEST POP POP POP POP JUMP JUMPDEST PUSH1 0x1 PUSH1 0x1 PUSH1 0xA0 SHL SUB DUP2 AND CALLER EQ PUSH2 0x303 JUMPI PUSH1 0x40 MLOAD PUSH4 0x334BD919 PUSH1 0xE1 SHL DUP2 MSTORE PUSH1 0x4 ADD PUSH1 0x40 MLOAD DUP1 SWAP2 SUB SWAP1 REVERT JUMPDEST PUSH2 0x30D DUP3 DUP3 PUSH2 0x680 JUMP JUMPDEST POP POP POP JUMP JUMPDEST PUSH1 0x0 PUSH1 0x0 DUP1 MLOAD PUSH1 0x20 PUSH2 0x84E DUP4 CODECOPY DUP2 MLOAD SWAP2 MSTORE PUSH2 0x32C DUP2 PUSH2 0x5E1 JUMP JUMPDEST PUSH1 0x1 PUSH1 0x1 PUSH1 0xA0 SHL SUB DUP6 AND PUSH2 0x378 JUMPI PUSH1 0x40 MLOAD PUSH3 0x461BCD PUSH1 0xE5 SHL DUP2 MSTORE PUSH1 0x20 PUSH1 0x4 DUP3 ADD MSTORE PUSH1 0xE PUSH1 0x24 DUP3 ADD MSTORE PUSH14 0x125B9D985B1A59081DD85B1B195D PUSH1 0x92 SHL PUSH1 0x44 DUP3 ADD MSTORE PUSH1 0x64 ADD JUMPDEST PUSH1 0x40 MLOAD DUP1 SWAP2 SUB SWAP1 REVERT JUMPDEST PUSH1 0x3 DUP1 SLOAD PUSH1 0x0 SWAP2 DUP3 PUSH2 0x389 DUP4 PUSH2 0x826 JUMP JUMPDEST SWAP1 SWAP2 SSTORE POP PUSH1 0x40 DUP1 MLOAD PUSH1 0x80 DUP2 ADD DUP3 MSTORE PUSH1 0x1 PUSH1 0x1 PUSH1 0xA0 SHL SUB DUP10 DUP2 AND DUP1 DUP4 MSTORE PUSH1 0x20 DUP1 DUP5 ADD DUP12 DUP2 MSTORE DUP5 DUP7 ADD DUP12 DUP2 MSTORE PUSH1 0x1 PUSH1 0x60 DUP1 DUP9 ADD DUP3 DUP2 MSTORE PUSH1 0x0 DUP12 DUP2 MSTORE DUP4 DUP8 MSTORE DUP11 DUP2 KECCAK256 SWAP10 MLOAD DUP11 SLOAD PUSH1 0x1 PUSH1 0x1 PUSH1 0xA0 SHL SUB NOT AND SWAP10 AND SWAP9 SWAP1 SWAP9 OR DUP10 SSTORE SWAP4 MLOAD DUP9 DUP4 ADD SSTORE SWAP2 MLOAD PUSH1 0x2 DUP1 DUP10 ADD SWAP2 SWAP1 SWAP2 SSTORE SWAP3 MLOAD PUSH1 0x3 SWAP1 SWAP8 ADD DUP1 SLOAD PUSH1 0xFF NOT AND SWAP8 ISZERO ISZERO SWAP8 SWAP1 SWAP8 OR SWAP1 SWAP7 SSTORE DUP4 DUP6 MSTORE SWAP1 DUP3 MSTORE DUP6 DUP5 KECCAK256 DUP1 SLOAD SWAP6 DUP7 ADD DUP2 SSTORE DUP5 MSTORE SWAP3 DUP2 SWAP1 KECCAK256 SWAP1 SWAP4 ADD DUP6 SWAP1 SSTORE DUP4 MLOAD DUP11 DUP2 MSTORE SWAP3 DUP4 ADD DUP10 SWAP1 MSTORE CALLER SWAP4 DUP4 ADD SWAP4 SWAP1 SWAP4 MSTORE SWAP3 SWAP4 POP SWAP1 SWAP2 DUP4 SWAP2 PUSH32 0x883DD05BD24160FFF4E9E8EACBD8AC3FA9CCCEF9172AAB7939503CD817EEAC1B SWAP2 ADD PUSH1 0x40 MLOAD DUP1 SWAP2 SUB SWAP1 LOG3 SWAP6 SWAP5 POP POP POP POP POP JUMP JUMPDEST PUSH1 0x0 DUP3 DUP2 MSTORE PUSH1 0x1 PUSH1 0x20 MSTORE PUSH1 0x40 DUP2 KECCAK256 PUSH1 0x3 DUP2 ADD SLOAD PUSH1 0xFF AND DUP1 ISZERO PUSH2 0x495 JUMPI POP DUP3 DUP2 PUSH1 0x1 ADD SLOAD EQ JUMPDEST DUP1 ISZERO PUSH2 0x4A5 JUMPI POP DUP1 PUSH1 0x2 ADD SLOAD TIMESTAMP GT ISZERO JUMPDEST SWAP5 SWAP4 POP POP POP POP JUMP JUMPDEST PUSH1 0x0 SWAP2 DUP3 MSTORE PUSH1 0x20 DUP3 DUP2 MSTORE PUSH1 0x40 DUP1 DUP5 KECCAK256 PUSH1 0x1 PUSH1 0x1 PUSH1 0xA0 SHL SUB SWAP4 SWAP1 SWAP4 AND DUP5 MSTORE SWAP2 SWAP1 MSTORE SWAP1 KECCAK256 SLOAD PUSH1 0xFF AND SWAP1 JUMP JUMPDEST PUSH1 0x0 PUSH2 0x4E1 DUP2 PUSH2 0x5E1 JUMP JUMPDEST PUSH2 0x4F9 PUSH1 0x0 DUP1 MLOAD PUSH1 0x20 PUSH2 0x84E DUP4 CODECOPY DUP2 MLOAD SWAP2 MSTORE DUP4 PUSH2 0x2AF JUMP JUMPDEST POP POP JUMP JUMPDEST PUSH1 0x0 DUP1 MLOAD PUSH1 0x20 PUSH2 0x84E DUP4 CODECOPY DUP2 MLOAD SWAP2 MSTORE PUSH2 0x515 DUP2 PUSH2 0x5E1 JUMP JUMPDEST PUSH1 0x0 DUP3 DUP2 MSTORE PUSH1 0x1 PUSH1 0x20 MSTORE PUSH1 0x40 SWAP1 KECCAK256 PUSH1 0x3 ADD SLOAD PUSH1 0xFF AND PUSH2 0x569 JUMPI PUSH1 0x40 MLOAD PUSH3 0x461BCD PUSH1 0xE5 SHL DUP2 MSTORE PUSH1 0x20 PUSH1 0x4 DUP3 ADD MSTORE PUSH1 0x10 PUSH1 0x24 DUP3 ADD MSTORE PUSH16 0x416C726561647920696E616374697665 PUSH1 0x80 SHL PUSH1 0x44 DUP3 ADD MSTORE PUSH1 0x64 ADD PUSH2 0x36F JUMP JUMPDEST PUSH1 0x0 DUP3 DUP2 MSTORE PUSH1 0x1 PUSH1 0x20 SWAP1 DUP2 MSTORE PUSH1 0x40 SWAP2 DUP3 SWAP1 KECCAK256 PUSH1 0x3 ADD DUP1 SLOAD PUSH1 0xFF NOT AND SWAP1 SSTORE SWAP1 MLOAD CALLER DUP2 MSTORE DUP4 SWAP2 PUSH32 0x245FB0804FE7F77B540635AC247ABB32ED516166817EF35D54168F833FD63F35 SWAP2 ADD PUSH1 0x40 MLOAD DUP1 SWAP2 SUB SWAP1 LOG2 POP POP JUMP JUMPDEST PUSH1 0x0 DUP3 DUP2 MSTORE PUSH1 0x20 DUP2 SWAP1 MSTORE PUSH1 0x40 SWAP1 KECCAK256 PUSH1 0x1 ADD SLOAD PUSH2 0x5D7 DUP2 PUSH2 0x5E1 JUMP JUMPDEST PUSH2 0x2D4 DUP4 DUP4 PUSH2 0x680 JUMP JUMPDEST PUSH2 0x5EB DUP2 CALLER PUSH2 0x6EB JUMP JUMPDEST POP JUMP JUMPDEST PUSH1 0x0 PUSH2 0x5FA DUP4 DUP4 PUSH2 0x4AD JUMP JUMPDEST PUSH2 0x678 JUMPI PUSH1 0x0 DUP4 DUP2 MSTORE PUSH1 0x20 DUP2 DUP2 MSTORE PUSH1 0x40 DUP1 DUP4 KECCAK256 PUSH1 0x1 PUSH1 0x1 PUSH1 0xA0 SHL SUB DUP7 AND DUP5 MSTORE SWAP1 SWAP2 MSTORE SWAP1 KECCAK256 DUP1 SLOAD PUSH1 0xFF NOT AND PUSH1 0x1 OR SWAP1 SSTORE PUSH2 0x630 CALLER SWAP1 JUMP JUMPDEST PUSH1 0x1 PUSH1 0x1 PUSH1 0xA0 SHL SUB AND DUP3 PUSH1 0x1 PUSH1 0x1 PUSH1 0xA0 SHL SUB AND DUP5 PUSH32 0x2F8788117E7EFF1D82E926EC794901D17C78024A50270940304540A733656F0D PUSH1 0x40 MLOAD PUSH1 0x40 MLOAD DUP1 SWAP2 SUB SWAP1 LOG4 POP PUSH1 0x1 PUSH2 0x2A9 JUMP JUMPDEST POP PUSH1 0x0 PUSH2 0x2A9 JUMP JUMPDEST PUSH1 0x0 PUSH2 0x68C DUP4 DUP4 PUSH2 0x4AD JUMP JUMPDEST ISZERO PUSH2 0x678 JUMPI PUSH1 0x0 DUP4 DUP2 MSTORE PUSH1 0x20 DUP2 DUP2 MSTORE PUSH1 0x40 DUP1 DUP4 KECCAK256 PUSH1 0x1 PUSH1 0x1 PUSH1 0xA0 SHL SUB DUP7 AND DUP1 DUP6 MSTORE SWAP3 MSTORE DUP1 DUP4 KECCAK256 DUP1 SLOAD PUSH1 0xFF NOT AND SWAP1 SSTORE MLOAD CALLER SWAP3 DUP7 SWAP2 PUSH32 0xF6391F5C32D9C69D2A47EA670B442974B53935D1EDC7FD64EB21E047A839171B SWAP2 SWAP1 LOG4 POP PUSH1 0x1 PUSH2 0x2A9 JUMP JUMPDEST PUSH2 0x6F5 DUP3 DUP3 PUSH2 0x4AD JUMP JUMPDEST PUSH2 0x4F9 JUMPI PUSH1 0x40 MLOAD PUSH4 0xE2517D3F PUSH1 0xE0 SHL DUP2 MSTORE PUSH1 0x1 PUSH1 0x1 PUSH1 0xA0 SHL SUB DUP3 AND PUSH1 0x4 DUP3 ADD MSTORE PUSH1 0x24 DUP2 ADD DUP4 SWAP1 MSTORE PUSH1 0x44 ADD PUSH2 0x36F JUMP JUMPDEST PUSH1 0x0 PUSH1 0x20 DUP3 DUP5 SUB SLT ISZERO PUSH2 0x736 JUMPI PUSH1 0x0 DUP1 REVERT JUMPDEST DUP2 CALLDATALOAD PUSH1 0x1 PUSH1 0x1 PUSH1 0xE0 SHL SUB NOT DUP2 AND DUP2 EQ PUSH2 0x74E JUMPI PUSH1 0x0 DUP1 REVERT JUMPDEST SWAP4 SWAP3 POP POP POP JUMP JUMPDEST PUSH1 0x0 PUSH1 0x20 DUP3 DUP5 SUB SLT ISZERO PUSH2 0x767 JUMPI PUSH1 0x0 DUP1 REVERT JUMPDEST POP CALLDATALOAD SWAP2 SWAP1 POP JUMP JUMPDEST DUP1 CALLDATALOAD PUSH1 0x1 PUSH1 0x1 PUSH1 0xA0 SHL SUB DUP2 AND DUP2 EQ PUSH2 0x785 JUMPI PUSH1 0x0 DUP1 REVERT JUMPDEST SWAP2 SWAP1 POP JUMP JUMPDEST PUSH1 0x0 DUP1 PUSH1 0x40 DUP4 DUP6 SUB SLT ISZERO PUSH2 0x79D JUMPI PUSH1 0x0 DUP1 REVERT JUMPDEST DUP3 CALLDATALOAD SWAP2 POP PUSH2 0x7AD PUSH1 0x20 DUP5 ADD PUSH2 0x76E JUMP JUMPDEST SWAP1 POP SWAP3 POP SWAP3 SWAP1 POP JUMP JUMPDEST PUSH1 0x0 DUP1 PUSH1 0x0 PUSH1 0x60 DUP5 DUP7 SUB SLT ISZERO PUSH2 0x7CB JUMPI PUSH1 0x0 DUP1 REVERT JUMPDEST PUSH2 0x7D4 DUP5 PUSH2 0x76E JUMP JUMPDEST SWAP6 PUSH1 0x20 DUP6 ADD CALLDATALOAD SWAP6 POP PUSH1 0x40 SWAP1 SWAP5 ADD CALLDATALOAD SWAP4 SWAP3 POP POP POP JUMP JUMPDEST PUSH1 0x0 DUP1 PUSH1 0x40 DUP4 DUP6 SUB SLT ISZERO PUSH2 0x7FC JUMPI PUSH1 0x0 DUP1 REVERT JUMPDEST POP POP DUP1 CALLDATALOAD SWAP3 PUSH1 0x20 SWAP1 SWAP2 ADD CALLDATALOAD SWAP2 POP JUMP JUMPDEST PUSH1 0x0 PUSH1 0x20 DUP3 DUP5 SUB SLT ISZERO PUSH2 0x81D JUMPI PUSH1 0x0 DUP1 REVERT JUMPDEST PUSH2 0x74E DUP3 PUSH2 0x76E JUMP JUMPDEST PUSH1 0x0 PUSH1 0x1 DUP3 ADD PUSH2 0x846 JUMPI PUSH4 0x4E487B71 PUSH1 0xE0 SHL PUSH1 0x0 MSTORE PUSH1 0x11 PUSH1 0x4 MSTORE PUSH1 0x24 PUSH1 0x0 REVERT JUMPDEST POP PUSH1 0x1 ADD SWAP1 JUMP INVALID GT 0x4E PUSH21 0xF6EA3BD819998F78687BFCB11B140DA08E9B7D222F 0xA9 0xC1 CALL 0xBA 0x1F 0x2A LOG1 0x22 LOG2 PUSH5 0x6970667358 0x22 SLT KECCAK256 0xDA SAR SWAP3 DUP10 COINBASE 0xDE 0xB2 0xDB DUP8 SWAP7 0x5E 0xB4 DUP2 EXTCODEHASH 0x2E OR PUSH22 0xCD4F0C30D6387E6F2D6D6AC7B8B7E464736F6C634300 ADDMOD EQ STOP CALLER "},"methodIdentifiers":{"DEFAULT_ADMIN_ROLE()":"a217fddf","ISSUER_ROLE()":"82aefa24","getRoleAdmin(bytes32)":"248a9ca3","getTourist(uint256)":"81f4b375","grantIssuerRole(address)":"a5c8d38d","grantRole(bytes32,address)":"2f2ff15d","hasRole(bytes32,address)":"91d14854","issueTourist(address,bytes32,uint256)":"5d3e73a0","nextId()":"61b8ce8c","renounceRole(bytes32,address)":"36568abe","revokeRole(bytes32,address)":"d547741f","revokeTourist(uint256)":"c26b3f0d","supportsInterface(bytes4)":"01ffc9a7","verifyTourist(uint256,bytes32)":"6cdc65d1"}}}}}